{
    "_format": "hh-sol-artifact-1",
    "contractName": "TicketSale",
    "sourceName": "contracts/Ticket.sol",
    "abi": [
        {
            "inputs": [],
            "stateMutability": "nonpayable",
            "type": "constructor"
        },
        {
            "anonymous": false,
            "inputs": [
                {
                    "indexed": true,
                    "internalType": "address",
                    "name": "owner",
                    "type": "address"
                },
                {
                    "indexed": true,
                    "internalType": "address",
                    "name": "approved",
                    "type": "address"
                },
                {
                    "indexed": true,
                    "internalType": "uint256",
                    "name": "tokenId",
                    "type": "uint256"
                }
            ],
            "name": "Approval",
            "type": "event"
        },
        {
            "anonymous": false,
            "inputs": [
                {
                    "indexed": true,
                    "internalType": "address",
                    "name": "owner",
                    "type": "address"
                },
                {
                    "indexed": true,
                    "internalType": "address",
                    "name": "operator",
                    "type": "address"
                },
                {
                    "indexed": false,
                    "internalType": "bool",
                    "name": "approved",
                    "type": "bool"
                }
            ],
            "name": "ApprovalForAll",
            "type": "event"
        },
        {
            "anonymous": false,
            "inputs": [
                {
                    "indexed": false,
                    "internalType": "uint256",
                    "name": "_ticketId",
                    "type": "uint256"
                },
                {
                    "indexed": false,
                    "internalType": "uint256",
                    "name": "_price",
                    "type": "uint256"
                },
                {
                    "components": [
                        {
                            "internalType": "string",
                            "name": "name",
                            "type": "string"
                        },
                        {
                            "internalType": "string",
                            "name": "venue",
                            "type": "string"
                        },
                        {
                            "internalType": "string",
                            "name": "describeDetail",
                            "type": "string"
                        },
                        {
                            "internalType": "string[]",
                            "name": "seat",
                            "type": "string[]"
                        },
                        {
                            "internalType": "uint256[]",
                            "name": "price",
                            "type": "uint256[]"
                        },
                        {
                            "internalType": "enum TicketSale.TicketType",
                            "name": "choice",
                            "type": "uint8"
                        }
                    ],
                    "indexed": false,
                    "internalType": "struct TicketSale.DetailTicket",
                    "name": "_ticket",
                    "type": "tuple"
                }
            ],
            "name": "BuyTicket",
            "type": "event"
        },
        {
            "anonymous": false,
            "inputs": [
                {
                    "indexed": false,
                    "internalType": "address",
                    "name": "_company",
                    "type": "address"
                },
                {
                    "indexed": false,
                    "internalType": "string",
                    "name": "_companyName",
                    "type": "string"
                },
                {
                    "indexed": false,
                    "internalType": "string",
                    "name": "_location",
                    "type": "string"
                },
                {
                    "indexed": false,
                    "internalType": "string",
                    "name": "_hostline",
                    "type": "string"
                },
                {
                    "indexed": false,
                    "internalType": "string",
                    "name": "_businessCode",
                    "type": "string"
                }
            ],
            "name": "CreateInfoCompany",
            "type": "event"
        },
        {
            "anonymous": false,
            "inputs": [
                {
                    "indexed": false,
                    "internalType": "uint256",
                    "name": "_eventId",
                    "type": "uint256"
                },
                {
                    "indexed": false,
                    "internalType": "string",
                    "name": "_venue",
                    "type": "string"
                },
                {
                    "indexed": false,
                    "internalType": "uint256",
                    "name": "_startSales",
                    "type": "uint256"
                },
                {
                    "indexed": false,
                    "internalType": "uint256",
                    "name": "_endSales",
                    "type": "uint256"
                },
                {
                    "indexed": false,
                    "internalType": "uint256",
                    "name": "_ticketCount",
                    "type": "uint256"
                },
                {
                    "indexed": false,
                    "internalType": "uint256",
                    "name": "_buyMax",
                    "type": "uint256"
                },
                {
                    "indexed": false,
                    "internalType": "enum TicketSale.TicketType",
                    "name": "_choice",
                    "type": "uint8"
                }
            ],
            "name": "CreateInfoTicket",
            "type": "event"
        },
        {
            "anonymous": false,
            "inputs": [
                {
                    "indexed": false,
                    "internalType": "uint256",
                    "name": "_eventId",
                    "type": "uint256"
                },
                {
                    "indexed": false,
                    "internalType": "string",
                    "name": "_name",
                    "type": "string"
                },
                {
                    "indexed": false,
                    "internalType": "string",
                    "name": "_describe",
                    "type": "string"
                },
                {
                    "indexed": false,
                    "internalType": "string[]",
                    "name": "_seat",
                    "type": "string[]"
                },
                {
                    "indexed": false,
                    "internalType": "uint256[]",
                    "name": "_price",
                    "type": "uint256[]"
                },
                {
                    "indexed": false,
                    "internalType": "enum TicketSale.TicketType",
                    "name": "_type",
                    "type": "uint8"
                }
            ],
            "name": "CreateInforDetailTicket",
            "type": "event"
        },
        {
            "anonymous": false,
            "inputs": [
                {
                    "indexed": false,
                    "internalType": "uint256",
                    "name": "_ticketId",
                    "type": "uint256"
                },
                {
                    "indexed": false,
                    "internalType": "string",
                    "name": "_name",
                    "type": "string"
                },
                {
                    "indexed": false,
                    "internalType": "string",
                    "name": "_describe",
                    "type": "string"
                },
                {
                    "indexed": false,
                    "internalType": "string",
                    "name": "_seat",
                    "type": "string"
                }
            ],
            "name": "CreateTicketId",
            "type": "event"
        },
        {
            "anonymous": false,
            "inputs": [
                {
                    "indexed": true,
                    "internalType": "address",
                    "name": "previousOwner",
                    "type": "address"
                },
                {
                    "indexed": true,
                    "internalType": "address",
                    "name": "newOwner",
                    "type": "address"
                }
            ],
            "name": "OwnershipTransferred",
            "type": "event"
        },
        {
            "anonymous": false,
            "inputs": [
                {
                    "indexed": true,
                    "internalType": "address",
                    "name": "from",
                    "type": "address"
                },
                {
                    "indexed": true,
                    "internalType": "address",
                    "name": "to",
                    "type": "address"
                },
                {
                    "indexed": true,
                    "internalType": "uint256",
                    "name": "tokenId",
                    "type": "uint256"
                }
            ],
            "name": "Transfer",
            "type": "event"
        },
        {
            "inputs": [
                {
                    "internalType": "address",
                    "name": "to",
                    "type": "address"
                },
                {
                    "internalType": "uint256",
                    "name": "tokenId",
                    "type": "uint256"
                }
            ],
            "name": "approve",
            "outputs": [],
            "stateMutability": "nonpayable",
            "type": "function"
        },
        {
            "inputs": [
                {
                    "internalType": "address",
                    "name": "owner",
                    "type": "address"
                }
            ],
            "name": "balanceOf",
            "outputs": [
                {
                    "internalType": "uint256",
                    "name": "",
                    "type": "uint256"
                }
            ],
            "stateMutability": "view",
            "type": "function"
        },
        {
            "inputs": [
                {
                    "internalType": "uint256",
                    "name": "_ticketId",
                    "type": "uint256"
                }
            ],
            "name": "burnTicket",
            "outputs": [],
            "stateMutability": "nonpayable",
            "type": "function"
        },
        {
            "inputs": [
                {
                    "internalType": "uint256",
                    "name": "_ticketId",
                    "type": "uint256"
                },
                {
                    "internalType": "address",
                    "name": "_token",
                    "type": "address"
                }
            ],
            "name": "buyReSaleTicket",
            "outputs": [],
            "stateMutability": "payable",
            "type": "function"
        },
        {
            "inputs": [
                {
                    "internalType": "uint256",
                    "name": "_eventId",
                    "type": "uint256"
                },
                {
                    "internalType": "uint256[]",
                    "name": "_amount",
                    "type": "uint256[]"
                },
                {
                    "internalType": "string[]",
                    "name": "_seat",
                    "type": "string[]"
                },
                {
                    "internalType": "address",
                    "name": "_token",
                    "type": "address"
                }
            ],
            "name": "buyTicket",
            "outputs": [],
            "stateMutability": "payable",
            "type": "function"
        },
        {
            "inputs": [
                {
                    "internalType": "string",
                    "name": "_venue",
                    "type": "string"
                },
                {
                    "internalType": "string",
                    "name": "_name",
                    "type": "string"
                },
                {
                    "internalType": "string",
                    "name": "_describeDetail",
                    "type": "string"
                },
                {
                    "internalType": "string[]",
                    "name": "_seat",
                    "type": "string[]"
                },
                {
                    "internalType": "uint256",
                    "name": "_saleStartTime",
                    "type": "uint256"
                },
                {
                    "internalType": "uint256",
                    "name": "_saleEndTime",
                    "type": "uint256"
                },
                {
                    "internalType": "uint256[]",
                    "name": "_amount",
                    "type": "uint256[]"
                },
                {
                    "internalType": "uint256[]",
                    "name": "_price",
                    "type": "uint256[]"
                },
                {
                    "internalType": "uint256",
                    "name": "_buyMax",
                    "type": "uint256"
                },
                {
                    "internalType": "address",
                    "name": "_token",
                    "type": "address"
                },
                {
                    "internalType": "enum TicketSale.TicketType",
                    "name": "_type",
                    "type": "uint8"
                }
            ],
            "name": "creatEventSaleTicket",
            "outputs": [],
            "stateMutability": "payable",
            "type": "function"
        },
        {
            "inputs": [
                {
                    "internalType": "address",
                    "name": "_company",
                    "type": "address"
                },
                {
                    "internalType": "string",
                    "name": "_name",
                    "type": "string"
                },
                {
                    "internalType": "string",
                    "name": "_address",
                    "type": "string"
                },
                {
                    "internalType": "string",
                    "name": "_phone",
                    "type": "string"
                },
                {
                    "internalType": "string",
                    "name": "_businessCode",
                    "type": "string"
                }
            ],
            "name": "createInfoCompany",
            "outputs": [],
            "stateMutability": "nonpayable",
            "type": "function"
        },
        {
            "inputs": [
                {
                    "internalType": "uint256",
                    "name": "",
                    "type": "uint256"
                }
            ],
            "name": "eventToOwner",
            "outputs": [
                {
                    "internalType": "address",
                    "name": "",
                    "type": "address"
                }
            ],
            "stateMutability": "view",
            "type": "function"
        },
        {
            "inputs": [],
            "name": "fundWallet",
            "outputs": [
                {
                    "internalType": "address",
                    "name": "",
                    "type": "address"
                }
            ],
            "stateMutability": "view",
            "type": "function"
        },
        {
            "inputs": [
                {
                    "internalType": "uint256",
                    "name": "tokenId",
                    "type": "uint256"
                }
            ],
            "name": "getApproved",
            "outputs": [
                {
                    "internalType": "address",
                    "name": "",
                    "type": "address"
                }
            ],
            "stateMutability": "view",
            "type": "function"
        },
        {
            "inputs": [
                {
                    "internalType": "uint256",
                    "name": "",
                    "type": "uint256"
                }
            ],
            "name": "infoEventTicket",
            "outputs": [
                {
                    "internalType": "uint256",
                    "name": "saleStartTime",
                    "type": "uint256"
                },
                {
                    "internalType": "uint256",
                    "name": "saleEndTime",
                    "type": "uint256"
                },
                {
                    "internalType": "uint256",
                    "name": "numberOfTicketsSale",
                    "type": "uint256"
                },
                {
                    "internalType": "uint256",
                    "name": "numberOfTicketsSold",
                    "type": "uint256"
                },
                {
                    "internalType": "uint256",
                    "name": "maxBuy",
                    "type": "uint256"
                }
            ],
            "stateMutability": "view",
            "type": "function"
        },
        {
            "inputs": [
                {
                    "internalType": "address",
                    "name": "",
                    "type": "address"
                }
            ],
            "name": "infoSeller",
            "outputs": [
                {
                    "internalType": "string",
                    "name": "companyName",
                    "type": "string"
                },
                {
                    "internalType": "string",
                    "name": "location",
                    "type": "string"
                },
                {
                    "internalType": "string",
                    "name": "hostline",
                    "type": "string"
                },
                {
                    "internalType": "string",
                    "name": "code",
                    "type": "string"
                },
                {
                    "internalType": "bool",
                    "name": "check",
                    "type": "bool"
                }
            ],
            "stateMutability": "view",
            "type": "function"
        },
        {
            "inputs": [
                {
                    "internalType": "address",
                    "name": "owner",
                    "type": "address"
                },
                {
                    "internalType": "address",
                    "name": "operator",
                    "type": "address"
                }
            ],
            "name": "isApprovedForAll",
            "outputs": [
                {
                    "internalType": "bool",
                    "name": "",
                    "type": "bool"
                }
            ],
            "stateMutability": "view",
            "type": "function"
        },
        {
            "inputs": [],
            "name": "name",
            "outputs": [
                {
                    "internalType": "string",
                    "name": "",
                    "type": "string"
                }
            ],
            "stateMutability": "view",
            "type": "function"
        },
        {
            "inputs": [],
            "name": "owner",
            "outputs": [
                {
                    "internalType": "address",
                    "name": "",
                    "type": "address"
                }
            ],
            "stateMutability": "view",
            "type": "function"
        },
        {
            "inputs": [
                {
                    "internalType": "uint256",
                    "name": "tokenId",
                    "type": "uint256"
                }
            ],
            "name": "ownerOf",
            "outputs": [
                {
                    "internalType": "address",
                    "name": "",
                    "type": "address"
                }
            ],
            "stateMutability": "view",
            "type": "function"
        },
        {
            "inputs": [
                {
                    "internalType": "uint256",
                    "name": "_ticketId",
                    "type": "uint256"
                },
                {
                    "internalType": "uint256",
                    "name": "_price",
                    "type": "uint256"
                },
                {
                    "internalType": "uint256",
                    "name": "_timeStart",
                    "type": "uint256"
                },
                {
                    "internalType": "uint256",
                    "name": "_timeEnd",
                    "type": "uint256"
                }
            ],
            "name": "reSaleTicket",
            "outputs": [],
            "stateMutability": "nonpayable",
            "type": "function"
        },
        {
            "inputs": [],
            "name": "renounceOwnership",
            "outputs": [],
            "stateMutability": "nonpayable",
            "type": "function"
        },
        {
            "inputs": [
                {
                    "internalType": "address",
                    "name": "from",
                    "type": "address"
                },
                {
                    "internalType": "address",
                    "name": "to",
                    "type": "address"
                },
                {
                    "internalType": "uint256",
                    "name": "tokenId",
                    "type": "uint256"
                }
            ],
            "name": "safeTransferFrom",
            "outputs": [],
            "stateMutability": "nonpayable",
            "type": "function"
        },
        {
            "inputs": [
                {
                    "internalType": "address",
                    "name": "from",
                    "type": "address"
                },
                {
                    "internalType": "address",
                    "name": "to",
                    "type": "address"
                },
                {
                    "internalType": "uint256",
                    "name": "tokenId",
                    "type": "uint256"
                },
                {
                    "internalType": "bytes",
                    "name": "data",
                    "type": "bytes"
                }
            ],
            "name": "safeTransferFrom",
            "outputs": [],
            "stateMutability": "nonpayable",
            "type": "function"
        },
        {
            "inputs": [
                {
                    "internalType": "address",
                    "name": "_ckAddress",
                    "type": "address"
                }
            ],
            "name": "setAddressToken",
            "outputs": [],
            "stateMutability": "nonpayable",
            "type": "function"
        },
        {
            "inputs": [
                {
                    "internalType": "address",
                    "name": "operator",
                    "type": "address"
                },
                {
                    "internalType": "bool",
                    "name": "approved",
                    "type": "bool"
                }
            ],
            "name": "setApprovalForAll",
            "outputs": [],
            "stateMutability": "nonpayable",
            "type": "function"
        },
        {
            "inputs": [
                {
                    "internalType": "bytes4",
                    "name": "interfaceId",
                    "type": "bytes4"
                }
            ],
            "name": "supportsInterface",
            "outputs": [
                {
                    "internalType": "bool",
                    "name": "",
                    "type": "bool"
                }
            ],
            "stateMutability": "view",
            "type": "function"
        },
        {
            "inputs": [],
            "name": "symbol",
            "outputs": [
                {
                    "internalType": "string",
                    "name": "",
                    "type": "string"
                }
            ],
            "stateMutability": "view",
            "type": "function"
        },
        {
            "inputs": [
                {
                    "internalType": "uint256",
                    "name": "tokenId",
                    "type": "uint256"
                }
            ],
            "name": "tokenURI",
            "outputs": [
                {
                    "internalType": "string",
                    "name": "",
                    "type": "string"
                }
            ],
            "stateMutability": "view",
            "type": "function"
        },
        {
            "inputs": [
                {
                    "internalType": "address",
                    "name": "from",
                    "type": "address"
                },
                {
                    "internalType": "address",
                    "name": "to",
                    "type": "address"
                },
                {
                    "internalType": "uint256",
                    "name": "tokenId",
                    "type": "uint256"
                }
            ],
            "name": "transferFrom",
            "outputs": [],
            "stateMutability": "nonpayable",
            "type": "function"
        },
        {
            "inputs": [
                {
                    "internalType": "address",
                    "name": "newOwner",
                    "type": "address"
                }
            ],
            "name": "transferOwnership",
            "outputs": [],
            "stateMutability": "nonpayable",
            "type": "function"
        }
    ],
    "bytecode": "0x60806040523480156200001157600080fd5b506040518060400160405280600681526020017f5469636b657400000000000000000000000000000000000000000000000000008152506040518060400160405280600381526020017f54435400000000000000000000000000000000000000000000000000000000008152506200009e62000092620000ca60201b60201c565b620000d260201b60201c565b8160019081620000af919062000410565b508060029081620000c1919062000410565b505050620004f7565b600033905090565b60008060009054906101000a900473ffffffffffffffffffffffffffffffffffffffff169050816000806101000a81548173ffffffffffffffffffffffffffffffffffffffff021916908373ffffffffffffffffffffffffffffffffffffffff1602179055508173ffffffffffffffffffffffffffffffffffffffff168173ffffffffffffffffffffffffffffffffffffffff167f8be0079c531659141344cd1fd0a4f28419497f9722a3daafe3b4186f6b6457e060405160405180910390a35050565b600081519050919050565b7f4e487b7100000000000000000000000000000000000000000000000000000000600052604160045260246000fd5b7f4e487b7100000000000000000000000000000000000000000000000000000000600052602260045260246000fd5b600060028204905060018216806200021857607f821691505b6020821081036200022e576200022d620001d0565b5b50919050565b60008190508160005260206000209050919050565b60006020601f8301049050919050565b600082821b905092915050565b600060088302620002987fffffffffffffffffffffffffffffffffffffffffffffffffffffffffffffffff8262000259565b620002a4868362000259565b95508019841693508086168417925050509392505050565b6000819050919050565b6000819050919050565b6000620002f1620002eb620002e584620002bc565b620002c6565b620002bc565b9050919050565b6000819050919050565b6200030d83620002d0565b620003256200031c82620002f8565b84845462000266565b825550505050565b600090565b6200033c6200032d565b6200034981848462000302565b505050565b5b8181101562000371576200036560008262000332565b6001810190506200034f565b5050565b601f821115620003c0576200038a8162000234565b620003958462000249565b81016020851015620003a5578190505b620003bd620003b48562000249565b8301826200034e565b50505b505050565b600082821c905092915050565b6000620003e560001984600802620003c5565b1980831691505092915050565b6000620004008383620003d2565b9150826002028217905092915050565b6200041b8262000196565b67ffffffffffffffff811115620004375762000436620001a1565b5b620004438254620001ff565b6200045082828562000375565b600060209050601f83116001811462000488576000841562000473578287015190505b6200047f8582620003f2565b865550620004ef565b601f198416620004988662000234565b60005b82811015620004c2578489015182556001820191506020850194506020810190506200049b565b86831015620004e25784890151620004de601f891682620003d2565b8355505b6001600288020188555050505b505050505050565b616ffb80620005076000396000f3fe60806040526004361061019c5760003560e01c8063715018a6116100ec578063a22cb4651161008a578063b88d4fde11610064578063b88d4fde146105b3578063c87b56dd146105dc578063e985e9c514610619578063f2fde38b146106565761019c565b8063a22cb46514610520578063a476b73d14610549578063a506641c146105725761019c565b80637c42d8d0116100c65780637c42d8d0146104855780638da5cb5b146104a157806395d89b41146104cc5780639700c3f9146104f75761019c565b8063715018a614610429578063762fac28146104405780637ab345a9146104695761019c565b80633e171bbe11610159578063483dcc2411610133578063483dcc24146103435780636352211e14610384578063664a1ad6146103c157806370a08231146103ec5761019c565b80633e171bbe146102c15780633ff96222146102dd57806342842e0e1461031a5761019c565b806301ffc9a7146101a157806306fdde03146101de578063081812fc14610209578063095ea7b31461024657806323b872dd1461026f57806338097d5214610298575b600080fd5b3480156101ad57600080fd5b506101c860048036038101906101c39190614714565b61067f565b6040516101d5919061475c565b60405180910390f35b3480156101ea57600080fd5b506101f3610761565b6040516102009190614807565b60405180910390f35b34801561021557600080fd5b50610230600480360381019061022b919061485f565b6107f3565b60405161023d91906148cd565b60405180910390f35b34801561025257600080fd5b5061026d60048036038101906102689190614914565b610839565b005b34801561027b57600080fd5b5061029660048036038101906102919190614954565b610950565b005b3480156102a457600080fd5b506102bf60048036038101906102ba91906149a7565b6109b0565b005b6102db60048036038101906102d69190614cec565b610f78565b005b3480156102e957600080fd5b5061030460048036038101906102ff919061485f565b611a85565b60405161031191906148cd565b60405180910390f35b34801561032657600080fd5b50610341600480360381019061033c9190614954565b611ab8565b005b34801561034f57600080fd5b5061036a6004803603810190610365919061485f565b611ad8565b60405161037b959493929190614d9a565b60405180910390f35b34801561039057600080fd5b506103ab60048036038101906103a6919061485f565b611b0e565b6040516103b891906148cd565b60405180910390f35b3480156103cd57600080fd5b506103d6611b94565b6040516103e391906148cd565b60405180910390f35b3480156103f857600080fd5b50610413600480360381019061040e9190614ded565b611bba565b6040516104209190614e1a565b60405180910390f35b34801561043557600080fd5b5061043e611c71565b005b34801561044c57600080fd5b5061046760048036038101906104629190614ded565b611c85565b005b610483600480360381019061047e9190614e5a565b611cd1565b005b61049f600480360381019061049a9190614ff6565b61248d565b005b3480156104ad57600080fd5b506104b66129e3565b6040516104c391906148cd565b60405180910390f35b3480156104d857600080fd5b506104e1612a0c565b6040516104ee9190614807565b60405180910390f35b34801561050357600080fd5b5061051e60048036038101906105199190615036565b612a9e565b005b34801561052c57600080fd5b506105476004803603810190610542919061514d565b612bd0565b005b34801561055557600080fd5b50610570600480360381019061056b919061485f565b612be6565b005b34801561057e57600080fd5b5061059960048036038101906105949190614ded565b612cac565b6040516105aa95949392919061518d565b60405180910390f35b3480156105bf57600080fd5b506105da60048036038101906105d5919061529d565b612f0f565b005b3480156105e857600080fd5b5061060360048036038101906105fe919061485f565b612f71565b6040516106109190614807565b60405180910390f35b34801561062557600080fd5b50610640600480360381019061063b9190615320565b612fd9565b60405161064d919061475c565b60405180910390f35b34801561066257600080fd5b5061067d60048036038101906106789190614ded565b61306d565b005b60007f80ac58cd000000000000000000000000000000000000000000000000000000007bffffffffffffffffffffffffffffffffffffffffffffffffffffffff1916827bffffffffffffffffffffffffffffffffffffffffffffffffffffffff1916148061074a57507f5b5e139f000000000000000000000000000000000000000000000000000000007bffffffffffffffffffffffffffffffffffffffffffffffffffffffff1916827bffffffffffffffffffffffffffffffffffffffffffffffffffffffff1916145b8061075a5750610759826130f0565b5b9050919050565b6060600180546107709061538f565b80601f016020809104026020016040519081016040528092919081815260200182805461079c9061538f565b80156107e95780601f106107be576101008083540402835291602001916107e9565b820191906000526020600020905b8154815290600101906020018083116107cc57829003601f168201915b5050505050905090565b60006107fe8261315a565b6005600083815260200190815260200160002060009054906101000a900473ffffffffffffffffffffffffffffffffffffffff169050919050565b600061084482611b0e565b90508073ffffffffffffffffffffffffffffffffffffffff168373ffffffffffffffffffffffffffffffffffffffff16036108b4576040517f08c379a00000000000000000000000000000000000000000000000000000000081526004016108ab90615432565b60405180910390fd5b8073ffffffffffffffffffffffffffffffffffffffff166108d36131a5565b73ffffffffffffffffffffffffffffffffffffffff1614806109025750610901816108fc6131a5565b612fd9565b5b610941576040517f08c379a0000000000000000000000000000000000000000000000000000000008152600401610938906154c4565b60405180910390fd5b61094b83836131ad565b505050565b61096161095b6131a5565b82613266565b6109a0576040517f08c379a000000000000000000000000000000000000000000000000000000000815260040161099790615556565b60405180910390fd5b6109ab8383836132fb565b505050565b6000601060008681526020019081526020016000205490506000600e60008381526020019081526020016000206040518060c00160405290816000820180546109f89061538f565b80601f0160208091040260200160405190810160405280929190818152602001828054610a249061538f565b8015610a715780601f10610a4657610100808354040283529160200191610a71565b820191906000526020600020905b815481529060010190602001808311610a5457829003601f168201915b50505050508152602001600182018054610a8a9061538f565b80601f0160208091040260200160405190810160405280929190818152602001828054610ab69061538f565b8015610b035780601f10610ad857610100808354040283529160200191610b03565b820191906000526020600020905b815481529060010190602001808311610ae657829003601f168201915b50505050508152602001600282018054610b1c9061538f565b80601f0160208091040260200160405190810160405280929190818152602001828054610b489061538f565b8015610b955780601f10610b6a57610100808354040283529160200191610b95565b820191906000526020600020905b815481529060010190602001808311610b7857829003601f168201915b5050505050815260200160038201805480602002602001604051908101604052809291908181526020016000905b82821015610c6f578382906000526020600020018054610be29061538f565b80601f0160208091040260200160405190810160405280929190818152602001828054610c0e9061538f565b8015610c5b5780601f10610c3057610100808354040283529160200191610c5b565b820191906000526020600020905b815481529060010190602001808311610c3e57829003601f168201915b505050505081526020019060010190610bc3565b50505050815260200160048201805480602002602001604051908101604052809291908181526020018280548015610cc657602002820191906000526020600020905b815481526020019060010190808311610cb2575b505050505081526020016005820160009054906101000a900460ff166002811115610cf457610cf3615576565b5b6002811115610d0657610d05615576565b5b8152505090503373ffffffffffffffffffffffffffffffffffffffff16610d2c87611b0e565b73ffffffffffffffffffffffffffffffffffffffff1614610d82576040517f08c379a0000000000000000000000000000000000000000000000000000000008152600401610d79906155f1565b60405180910390fd5b604051806101000160405280868152602001858152602001848152602001826000015181526020018260200151815260200182604001518152602001601260008981526020019081526020016000208054610ddc9061538f565b80601f0160208091040260200160405190810160405280929190818152602001828054610e089061538f565b8015610e555780601f10610e2a57610100808354040283529160200191610e55565b820191906000526020600020905b815481529060010190602001808311610e3857829003601f168201915b505050505081526020018260a001516002811115610e7657610e75615576565b5b815250601160008881526020019081526020016000206000820151816000015560208201518160010155604082015181600201556060820151816003019081610ebf91906157bd565b506080820151816004019081610ed591906157bd565b5060a0820151816005019081610eeb91906157bd565b5060c0820151816006019081610f0191906157bd565b5060e08201518160070160006101000a81548160ff02191690836002811115610f2d57610f2c615576565b5b02179055509050507fa24d43e4ae7251cfe65c2a70322d1adcc29ef113a7ad80bd83db2e516467fc43868683604051610f6893929190615b46565b60405180910390a1505050505050565b6000600d60008681526020019081526020016000206040518060a00160405290816000820154815260200160018201548152602001600282015481526020016003820154815260200160048201548152505090506000600d6000600188610fdf9190615bb3565b81526020019081526020016000206040518060a00160405290816000820154815260200160018201548152602001600282015481526020016003820154815260200160048201548152505090506000611037866135f4565b11611077576040517f08c379a000000000000000000000000000000000000000000000000000000000815260040161106e90615c33565b60405180910390fd5b61108286858761364c565b6110c1576040517f08c379a00000000000000000000000000000000000000000000000000000000081526004016110b890615c9f565b60405180910390fd5b8351855114611105576040517f08c379a00000000000000000000000000000000000000000000000000000000081526004016110fc90615d0b565b60405180910390fd5b816060015182604001516111199190615bb3565b611122866135f4565b10611162576040517f08c379a000000000000000000000000000000000000000000000000000000000815260040161115990615d77565b60405180910390fd5b4282600001511080156111785750428260000151115b6111b7576040517f08c379a00000000000000000000000000000000000000000000000000000000081526004016111ae90615de3565b60405180910390fd5b81608001516111c5866135f4565b10611205576040517f08c379a00000000000000000000000000000000000000000000000000000000081526004016111fc90615e4f565b60405180910390fd5b8160400151611213866135f4565b10611253576040517f08c379a000000000000000000000000000000000000000000000000000000000815260040161124a90615ebb565b60405180910390fd5b8351855114611297576040517f08c379a000000000000000000000000000000000000000000000000000000000815260040161128e90615f27565b60405180910390fd5b600080600090505b855181101561131257600f60008981526020019081526020016000208682815181106112ce576112cd615f47565b5b60200260200101516040516112e39190615fb2565b908152602001604051809103902054826112fd9190615fc9565b9150808061130a90615ffd565b91505061129f565b50600073ffffffffffffffffffffffffffffffffffffffff168473ffffffffffffffffffffffffffffffffffffffff160361138a57348114611389576040517f08c379a000000000000000000000000000000000000000000000000000000000815260040161138090616091565b60405180910390fd5b5b6113ac606460058361139c91906160b1565b6113a69190616122565b85613733565b600073ffffffffffffffffffffffffffffffffffffffff168473ffffffffffffffffffffffffffffffffffffffff16036114d95760006009600089815260200190815260200160002060009054906101000a900473ffffffffffffffffffffffffffffffffffffffff1673ffffffffffffffffffffffffffffffffffffffff166064605f8461143b91906160b1565b6114459190616122565b60405161145190616184565b60006040518083038185875af1925050503d806000811461148e576040519150601f19603f3d011682016040523d82523d6000602084013e611493565b606091505b50509050806114d7576040517f08c379a00000000000000000000000000000000000000000000000000000000081526004016114ce906161e5565b60405180910390fd5b505b600087036114ed5760008260400181815250505b6000600e60008981526020019081526020016000206040518060c001604052908160008201805461151d9061538f565b80601f01602080910402602001604051908101604052809291908181526020018280546115499061538f565b80156115965780601f1061156b57610100808354040283529160200191611596565b820191906000526020600020905b81548152906001019060200180831161157957829003601f168201915b505050505081526020016001820180546115af9061538f565b80601f01602080910402602001604051908101604052809291908181526020018280546115db9061538f565b80156116285780601f106115fd57610100808354040283529160200191611628565b820191906000526020600020905b81548152906001019060200180831161160b57829003601f168201915b505050505081526020016002820180546116419061538f565b80601f016020809104026020016040519081016040528092919081815260200182805461166d9061538f565b80156116ba5780601f1061168f576101008083540402835291602001916116ba565b820191906000526020600020905b81548152906001019060200180831161169d57829003601f168201915b5050505050815260200160038201805480602002602001604051908101604052809291908181526020016000905b828210156117945783829060005260206000200180546117079061538f565b80601f01602080910402602001604051908101604052809291908181526020018280546117339061538f565b80156117805780601f1061175557610100808354040283529160200191611780565b820191906000526020600020905b81548152906001019060200180831161176357829003601f168201915b5050505050815260200190600101906116e8565b505050508152602001600482018054806020026020016040519081016040528092919081815260200182805480156117eb57602002820191906000526020600020905b8154815260200190600101908083116117d7575b505050505081526020016005820160009054906101000a900460ff16600281111561181957611818615576565b5b600281111561182b5761182a615576565b5b81525050905060005b87518110156119e35760005b88828151811061185357611852615f47565b5b60200260200101518110156119cf57600060018760600151876040015161187a9190615fc9565b6118849190615fc9565b905061189033826138e3565b8a60106000838152602001908152602001600020819055506001876060018181516118bb9190615fc9565b915081815250508883815181106118d5576118d4615f47565b5b60200260200101516012600083815260200190815260200160002090816118fc91906157bd565b50601360008c815260200190815260200160002089848151811061192357611922615f47565b5b60200260200101516040516119389190615fb2565b9081526020016040518091039020600081548092919061195790616205565b91905055507fa0d3a31a9cd286dc76306e56bc9d3db13fc01993127f745c3c75848def4d8db581856000015186604001518c878151811061199b5761199a615f47565b5b60200260200101516040516119b3949392919061622e565b60405180910390a15080806119c790615ffd565b915050611840565b5080806119db90615ffd565b915050611834565b50601460009054906101000a900473ffffffffffffffffffffffffffffffffffffffff1673ffffffffffffffffffffffffffffffffffffffff1663e74a84ea33611a2c8a6135f4565b6040518363ffffffff1660e01b8152600401611a49929190616288565b600060405180830381600087803b158015611a6357600080fd5b505af1158015611a77573d6000803e3d6000fd5b505050505050505050505050565b60096020528060005260406000206000915054906101000a900473ffffffffffffffffffffffffffffffffffffffff1681565b611ad383838360405180602001604052806000815250612f0f565b505050565b600d6020528060005260406000206000915090508060000154908060010154908060020154908060030154908060040154905085565b600080611b1a83613901565b9050600073ffffffffffffffffffffffffffffffffffffffff168173ffffffffffffffffffffffffffffffffffffffff1603611b8b576040517f08c379a0000000000000000000000000000000000000000000000000000000008152600401611b82906162fd565b60405180910390fd5b80915050919050565b600860009054906101000a900473ffffffffffffffffffffffffffffffffffffffff1681565b60008073ffffffffffffffffffffffffffffffffffffffff168273ffffffffffffffffffffffffffffffffffffffff1603611c2a576040517f08c379a0000000000000000000000000000000000000000000000000000000008152600401611c219061638f565b60405180910390fd5b600460008373ffffffffffffffffffffffffffffffffffffffff1673ffffffffffffffffffffffffffffffffffffffff168152602001908152602001600020549050919050565b611c7961393e565b611c8360006139bc565b565b611c8d61393e565b80601460006101000a81548173ffffffffffffffffffffffffffffffffffffffff021916908373ffffffffffffffffffffffffffffffffffffffff16021790555050565b60011515600b60003373ffffffffffffffffffffffffffffffffffffffff1673ffffffffffffffffffffffffffffffffffffffff16815260200190815260200160002060040160009054906101000a900460ff16151514611d67576040517f08c379a0000000000000000000000000000000000000000000000000000000008152600401611d5e906163fb565b60405180910390fd5b868611611da9576040517f08c379a0000000000000000000000000000000000000000000000000000000008152600401611da090616467565b60405180910390fd5b6000611db4866135f4565b11611df4576040517f08c379a0000000000000000000000000000000000000000000000000000000008152600401611deb906164d3565b60405180910390fd5b60008311611e37576040517f08c379a0000000000000000000000000000000000000000000000000000000008152600401611e2e9061653f565b60405180910390fd5b611e40856135f4565b8310611e81576040517f08c379a0000000000000000000000000000000000000000000000000000000008152600401611e78906165ab565b60405180910390fd5b83518851148015611e93575084518451145b611ed2576040517f08c379a0000000000000000000000000000000000000000000000000000000008152600401611ec990616617565b60405180910390fd5b6000806002811115611ee757611ee6615576565b5b826002811115611efa57611ef9615576565b5b03611f1c5765048c27395000611f0f876135f4565b611f1991906160b1565b90505b60016002811115611f3057611f2f615576565b5b826002811115611f4357611f42615576565b5b03611f66576601c6bf52634000611f59876135f4565b611f6391906160b1565b90505b600280811115611f7957611f78615576565b5b826002811115611f8c57611f8b615576565b5b03611faf576601c6bf52634000611fa2876135f4565b611fac91906160b1565b90505b600073ffffffffffffffffffffffffffffffffffffffff168373ffffffffffffffffffffffffffffffffffffffff160361202657348114612025576040517f08c379a000000000000000000000000000000000000000000000000000000000815260040161201c90616091565b60405180910390fd5b5b6120308184613733565b61203a6007613a80565b60006120466007613a96565b9050336009600083815260200190815260200160002060006101000a81548173ffffffffffffffffffffffffffffffffffffffff021916908373ffffffffffffffffffffffffffffffffffffffff160217905550600a60003373ffffffffffffffffffffffffffffffffffffffff1673ffffffffffffffffffffffffffffffffffffffff16815260200190815260200160002060008154809291906120ea90615ffd565b91905055506040518060a001604052808a815260200189815260200161210f896135f4565b81526020016000815260200186815250600d600083815260200190815260200160002060008201518160000155602082015181600101556040820151816002015560608201518160030155608082015181600401559050506040518060c001604052808d81526020018e81526020018c81526020018b81526020018781526020018460028111156121a3576121a2615576565b5b815250600e600083815260200190815260200160002060008201518160000190816121ce91906157bd565b5060208201518160010190816121e491906157bd565b5060408201518160020190816121fa91906157bd565b506060820151816003019080519060200190612217929190614581565b5060808201518160040190805190602001906122349291906145da565b5060a08201518160050160006101000a81548160ff021916908360028111156122605761225f615576565b5b02179055509050506000600a60003373ffffffffffffffffffffffffffffffffffffffff1673ffffffffffffffffffffffffffffffffffffffff16815260200190815260200160002054905081600c60003373ffffffffffffffffffffffffffffffffffffffff1673ffffffffffffffffffffffffffffffffffffffff16815260200190815260200160002060008381526020019081526020016000208190555060005b8b518110156123f0578881815181106123205761231f615f47565b5b6020026020010151601360008581526020019081526020016000208d838151811061234e5761234d615f47565b5b60200260200101516040516123639190615fb2565b90815260200160405180910390208190555087818151811061238857612387615f47565b5b6020026020010151600f60008581526020019081526020016000208d83815181106123b6576123b5615f47565b5b60200260200101516040516123cb9190615fb2565b90815260200160405180910390208190555080806123e890615ffd565b915050612304565b507f9a5d0453ed756c16498797b392c2525a06cfdd3e69537f6a306175a5fd215f25828f8c8c61241f8d6135f4565b8b8a6040516124349796959493929190616646565b60405180910390a17fc9b01ee3e63a11eea7f87d35e9c63a81839fb943f83844079c85db1eecf0eb32828e8e8e8b89604051612475969594939291906167b1565b60405180910390a15050505050505050505050505050565b600060116000848152602001908152602001600020604051806101000160405290816000820154815260200160018201548152602001600282015481526020016003820180546124dc9061538f565b80601f01602080910402602001604051908101604052809291908181526020018280546125089061538f565b80156125555780601f1061252a57610100808354040283529160200191612555565b820191906000526020600020905b81548152906001019060200180831161253857829003601f168201915b5050505050815260200160048201805461256e9061538f565b80601f016020809104026020016040519081016040528092919081815260200182805461259a9061538f565b80156125e75780601f106125bc576101008083540402835291602001916125e7565b820191906000526020600020905b8154815290600101906020018083116125ca57829003601f168201915b505050505081526020016005820180546126009061538f565b80601f016020809104026020016040519081016040528092919081815260200182805461262c9061538f565b80156126795780601f1061264e57610100808354040283529160200191612679565b820191906000526020600020905b81548152906001019060200180831161265c57829003601f168201915b505050505081526020016006820180546126929061538f565b80601f01602080910402602001604051908101604052809291908181526020018280546126be9061538f565b801561270b5780601f106126e05761010080835404028352916020019161270b565b820191906000526020600020905b8154815290600101906020018083116126ee57829003601f168201915b505050505081526020016007820160009054906101000a900460ff16600281111561273957612738615576565b5b600281111561274b5761274a615576565b5b815250509050600061275c84611b0e565b905081602001514210156127a5576040517f08c379a000000000000000000000000000000000000000000000000000000000815260040161279c9061687a565b60405180910390fd5b81602001514211156127ec576040517f08c379a00000000000000000000000000000000000000000000000000000000081526004016127e3906168e6565b60405180910390fd5b600073ffffffffffffffffffffffffffffffffffffffff168373ffffffffffffffffffffffffffffffffffffffff16036128675734826000015114612866576040517f08c379a000000000000000000000000000000000000000000000000000000000815260040161285d90616091565b60405180910390fd5b5b600073ffffffffffffffffffffffffffffffffffffffff168373ffffffffffffffffffffffffffffffffffffffff160361294d5760008173ffffffffffffffffffffffffffffffffffffffff1683600001516040516128c590616184565b60006040518083038185875af1925050503d8060008114612902576040519150601f19603f3d011682016040523d82523d6000602084013e612907565b606091505b505090508061294b576040517f08c379a0000000000000000000000000000000000000000000000000000000008152600401612942906161e5565b60405180910390fd5b505b8273ffffffffffffffffffffffffffffffffffffffff166323b872dd338385600001516040518463ffffffff1660e01b815260040161298e93929190616906565b6020604051808303816000875af11580156129ad573d6000803e3d6000fd5b505050506040513d601f19601f820116820180604052508101906129d19190616952565b506129dd813386611ab8565b50505050565b60008060009054906101000a900473ffffffffffffffffffffffffffffffffffffffff16905090565b606060028054612a1b9061538f565b80601f0160208091040260200160405190810160405280929190818152602001828054612a479061538f565b8015612a945780601f10612a6957610100808354040283529160200191612a94565b820191906000526020600020905b815481529060010190602001808311612a7757829003601f168201915b5050505050905090565b612aa661393e565b6040518060a0016040528085815260200184815260200183815260200182815260200160011515815250600b60008773ffffffffffffffffffffffffffffffffffffffff1673ffffffffffffffffffffffffffffffffffffffff1681526020019081526020016000206000820151816000019081612b2491906157bd565b506020820151816001019081612b3a91906157bd565b506040820151816002019081612b5091906157bd565b506060820151816003019081612b6691906157bd565b5060808201518160040160006101000a81548160ff0219169083151502179055509050507fc42842325bcc312410070e0aee07e8c3e471951adce9e4922478f3f3b3b10c688585858585604051612bc195949392919061697f565b60405180910390a15050505050565b612be2612bdb6131a5565b8383613aa4565b5050565b6000601060008381526020019081526020016000205490503373ffffffffffffffffffffffffffffffffffffffff166009600083815260200190815260200160002060009054906101000a900473ffffffffffffffffffffffffffffffffffffffff1673ffffffffffffffffffffffffffffffffffffffff1614612c9f576040517f08c379a0000000000000000000000000000000000000000000000000000000008152600401612c9690616a3a565b60405180910390fd5b612ca882613c10565b5050565b600b602052806000526040600020600091509050806000018054612ccf9061538f565b80601f0160208091040260200160405190810160405280929190818152602001828054612cfb9061538f565b8015612d485780601f10612d1d57610100808354040283529160200191612d48565b820191906000526020600020905b815481529060010190602001808311612d2b57829003601f168201915b505050505090806001018054612d5d9061538f565b80601f0160208091040260200160405190810160405280929190818152602001828054612d899061538f565b8015612dd65780601f10612dab57610100808354040283529160200191612dd6565b820191906000526020600020905b815481529060010190602001808311612db957829003601f168201915b505050505090806002018054612deb9061538f565b80601f0160208091040260200160405190810160405280929190818152602001828054612e179061538f565b8015612e645780601f10612e3957610100808354040283529160200191612e64565b820191906000526020600020905b815481529060010190602001808311612e4757829003601f168201915b505050505090806003018054612e799061538f565b80601f0160208091040260200160405190810160405280929190818152602001828054612ea59061538f565b8015612ef25780601f10612ec757610100808354040283529160200191612ef2565b820191906000526020600020905b815481529060010190602001808311612ed557829003601f168201915b5050505050908060040160009054906101000a900460ff16905085565b612f20612f1a6131a5565b83613266565b612f5f576040517f08c379a0000000000000000000000000000000000000000000000000000000008152600401612f5690615556565b60405180910390fd5b612f6b84848484613d5e565b50505050565b6060612f7c8261315a565b6000612f86613dba565b90506000815111612fa65760405180602001604052806000815250612fd1565b80612fb084613dd1565b604051602001612fc1929190616a5a565b6040516020818303038152906040525b915050919050565b6000600660008473ffffffffffffffffffffffffffffffffffffffff1673ffffffffffffffffffffffffffffffffffffffff16815260200190815260200160002060008373ffffffffffffffffffffffffffffffffffffffff1673ffffffffffffffffffffffffffffffffffffffff16815260200190815260200160002060009054906101000a900460ff16905092915050565b61307561393e565b600073ffffffffffffffffffffffffffffffffffffffff168173ffffffffffffffffffffffffffffffffffffffff16036130e4576040517f08c379a00000000000000000000000000000000000000000000000000000000081526004016130db90616af0565b60405180910390fd5b6130ed816139bc565b50565b60007f01ffc9a7000000000000000000000000000000000000000000000000000000007bffffffffffffffffffffffffffffffffffffffffffffffffffffffff1916827bffffffffffffffffffffffffffffffffffffffffffffffffffffffff1916149050919050565b61316381613e9f565b6131a2576040517f08c379a0000000000000000000000000000000000000000000000000000000008152600401613199906162fd565b60405180910390fd5b50565b600033905090565b816005600083815260200190815260200160002060006101000a81548173ffffffffffffffffffffffffffffffffffffffff021916908373ffffffffffffffffffffffffffffffffffffffff160217905550808273ffffffffffffffffffffffffffffffffffffffff1661322083611b0e565b73ffffffffffffffffffffffffffffffffffffffff167f8c5be1e5ebec7d5bd14f71427d1e84f3dd0314c0f7b2291e5b200ac8c7c3b92560405160405180910390a45050565b60008061327283611b0e565b90508073ffffffffffffffffffffffffffffffffffffffff168473ffffffffffffffffffffffffffffffffffffffff1614806132b457506132b38185612fd9565b5b806132f257508373ffffffffffffffffffffffffffffffffffffffff166132da846107f3565b73ffffffffffffffffffffffffffffffffffffffff16145b91505092915050565b8273ffffffffffffffffffffffffffffffffffffffff1661331b82611b0e565b73ffffffffffffffffffffffffffffffffffffffff1614613371576040517f08c379a000000000000000000000000000000000000000000000000000000000815260040161336890616b82565b60405180910390fd5b600073ffffffffffffffffffffffffffffffffffffffff168273ffffffffffffffffffffffffffffffffffffffff16036133e0576040517f08c379a00000000000000000000000000000000000000000000000000000000081526004016133d790616c14565b60405180910390fd5b6133ed8383836001613ee0565b8273ffffffffffffffffffffffffffffffffffffffff1661340d82611b0e565b73ffffffffffffffffffffffffffffffffffffffff1614613463576040517f08c379a000000000000000000000000000000000000000000000000000000000815260040161345a90616b82565b60405180910390fd5b6005600082815260200190815260200160002060006101000a81549073ffffffffffffffffffffffffffffffffffffffff02191690556001600460008573ffffffffffffffffffffffffffffffffffffffff1673ffffffffffffffffffffffffffffffffffffffff168152602001908152602001600020600082825403925050819055506001600460008473ffffffffffffffffffffffffffffffffffffffff1673ffffffffffffffffffffffffffffffffffffffff16815260200190815260200160002060008282540192505081905550816003600083815260200190815260200160002060006101000a81548173ffffffffffffffffffffffffffffffffffffffff021916908373ffffffffffffffffffffffffffffffffffffffff160217905550808273ffffffffffffffffffffffffffffffffffffffff168473ffffffffffffffffffffffffffffffffffffffff167fddf252ad1be2c89b69c2b068fc378daa952ba7f163c4a11628f55a4df523b3ef60405160405180910390a46135ef8383836001614006565b505050565b6000806000905060005b83518110156136425783818151811061361a57613619615f47565b5b60200260200101518261362d9190615fc9565b9150808061363a90615ffd565b9150506135fe565b5080915050919050565b60008151835114613692576040517f08c379a000000000000000000000000000000000000000000000000000000000815260040161368990616c80565b60405180910390fd5b60005b8351811015613726578281815181106136b1576136b0615f47565b5b6020026020010151601360008781526020019081526020016000208583815181106136df576136de615f47565b5b60200260200101516040516136f49190615fb2565b908152602001604051809103902054101561371357600091505061372c565b808061371e90615ffd565b915050613695565b50600190505b9392505050565b600073ffffffffffffffffffffffffffffffffffffffff168173ffffffffffffffffffffffffffffffffffffffff160361383b576000600860009054906101000a900473ffffffffffffffffffffffffffffffffffffffff1673ffffffffffffffffffffffffffffffffffffffff16836040516137af90616184565b60006040518083038185875af1925050503d80600081146137ec576040519150601f19603f3d011682016040523d82523d6000602084013e6137f1565b606091505b5050905080613835576040517f08c379a000000000000000000000000000000000000000000000000000000000815260040161382c906161e5565b60405180910390fd5b506138df565b8073ffffffffffffffffffffffffffffffffffffffff166323b872dd33600860009054906101000a900473ffffffffffffffffffffffffffffffffffffffff16856040518463ffffffff1660e01b815260040161389a93929190616906565b6020604051808303816000875af11580156138b9573d6000803e3d6000fd5b505050506040513d601f19601f820116820180604052508101906138dd9190616952565b505b5050565b6138fd82826040518060200160405280600081525061400c565b5050565b60006003600083815260200190815260200160002060009054906101000a900473ffffffffffffffffffffffffffffffffffffffff169050919050565b6139466131a5565b73ffffffffffffffffffffffffffffffffffffffff166139646129e3565b73ffffffffffffffffffffffffffffffffffffffff16146139ba576040517f08c379a00000000000000000000000000000000000000000000000000000000081526004016139b190616cec565b60405180910390fd5b565b60008060009054906101000a900473ffffffffffffffffffffffffffffffffffffffff169050816000806101000a81548173ffffffffffffffffffffffffffffffffffffffff021916908373ffffffffffffffffffffffffffffffffffffffff1602179055508173ffffffffffffffffffffffffffffffffffffffff168173ffffffffffffffffffffffffffffffffffffffff167f8be0079c531659141344cd1fd0a4f28419497f9722a3daafe3b4186f6b6457e060405160405180910390a35050565b6001816000016000828254019250508190555050565b600081600001549050919050565b8173ffffffffffffffffffffffffffffffffffffffff168373ffffffffffffffffffffffffffffffffffffffff1603613b12576040517f08c379a0000000000000000000000000000000000000000000000000000000008152600401613b0990616d58565b60405180910390fd5b80600660008573ffffffffffffffffffffffffffffffffffffffff1673ffffffffffffffffffffffffffffffffffffffff16815260200190815260200160002060008473ffffffffffffffffffffffffffffffffffffffff1673ffffffffffffffffffffffffffffffffffffffff16815260200190815260200160002060006101000a81548160ff0219169083151502179055508173ffffffffffffffffffffffffffffffffffffffff168373ffffffffffffffffffffffffffffffffffffffff167f17307eab39ab6107e8899845ad3d59bd9653f200f220920489ca2b5937696c3183604051613c03919061475c565b60405180910390a3505050565b6000613c1b82611b0e565b9050613c2b816000846001613ee0565b613c3482611b0e565b90506005600083815260200190815260200160002060006101000a81549073ffffffffffffffffffffffffffffffffffffffff02191690556001600460008373ffffffffffffffffffffffffffffffffffffffff1673ffffffffffffffffffffffffffffffffffffffff168152602001908152602001600020600082825403925050819055506003600083815260200190815260200160002060006101000a81549073ffffffffffffffffffffffffffffffffffffffff021916905581600073ffffffffffffffffffffffffffffffffffffffff168273ffffffffffffffffffffffffffffffffffffffff167fddf252ad1be2c89b69c2b068fc378daa952ba7f163c4a11628f55a4df523b3ef60405160405180910390a4613d5a816000846001614006565b5050565b613d698484846132fb565b613d7584848484614067565b613db4576040517f08c379a0000000000000000000000000000000000000000000000000000000008152600401613dab90616dea565b60405180910390fd5b50505050565b606060405180602001604052806000815250905090565b606060006001613de0846141ee565b01905060008167ffffffffffffffff811115613dff57613dfe614a13565b5b6040519080825280601f01601f191660200182016040528015613e315781602001600182028036833780820191505090505b509050600082602001820190505b600115613e94578080600190039150507f3031323334353637383961626364656600000000000000000000000000000000600a86061a8153600a8581613e8857613e876160f3565b5b04945060008503613e3f575b819350505050919050565b60008073ffffffffffffffffffffffffffffffffffffffff16613ec183613901565b73ffffffffffffffffffffffffffffffffffffffff1614159050919050565b600181111561400057600073ffffffffffffffffffffffffffffffffffffffff168473ffffffffffffffffffffffffffffffffffffffff1614613f745780600460008673ffffffffffffffffffffffffffffffffffffffff1673ffffffffffffffffffffffffffffffffffffffff1681526020019081526020016000206000828254613f6c9190615bb3565b925050819055505b600073ffffffffffffffffffffffffffffffffffffffff168373ffffffffffffffffffffffffffffffffffffffff1614613fff5780600460008573ffffffffffffffffffffffffffffffffffffffff1673ffffffffffffffffffffffffffffffffffffffff1681526020019081526020016000206000828254613ff79190615fc9565b925050819055505b5b50505050565b50505050565b6140168383614341565b6140236000848484614067565b614062576040517f08c379a000000000000000000000000000000000000000000000000000000000815260040161405990616dea565b60405180910390fd5b505050565b60006140888473ffffffffffffffffffffffffffffffffffffffff1661455e565b156141e1578373ffffffffffffffffffffffffffffffffffffffff1663150b7a026140b16131a5565b8786866040518563ffffffff1660e01b81526004016140d39493929190616e5f565b6020604051808303816000875af192505050801561410f57506040513d601f19601f8201168201806040525081019061410c9190616ec0565b60015b614191573d806000811461413f576040519150601f19603f3d011682016040523d82523d6000602084013e614144565b606091505b506000815103614189576040517f08c379a000000000000000000000000000000000000000000000000000000000815260040161418090616dea565b60405180910390fd5b805181602001fd5b63150b7a0260e01b7bffffffffffffffffffffffffffffffffffffffffffffffffffffffff1916817bffffffffffffffffffffffffffffffffffffffffffffffffffffffff1916149150506141e6565b600190505b949350505050565b600080600090507a184f03e93ff9f4daa797ed6e38ed64bf6a1f010000000000000000831061424c577a184f03e93ff9f4daa797ed6e38ed64bf6a1f0100000000000000008381614242576142416160f3565b5b0492506040810190505b6d04ee2d6d415b85acef81000000008310614289576d04ee2d6d415b85acef8100000000838161427f5761427e6160f3565b5b0492506020810190505b662386f26fc1000083106142b857662386f26fc1000083816142ae576142ad6160f3565b5b0492506010810190505b6305f5e10083106142e1576305f5e10083816142d7576142d66160f3565b5b0492506008810190505b61271083106143065761271083816142fc576142fb6160f3565b5b0492506004810190505b60648310614329576064838161431f5761431e6160f3565b5b0492506002810190505b600a8310614338576001810190505b80915050919050565b600073ffffffffffffffffffffffffffffffffffffffff168273ffffffffffffffffffffffffffffffffffffffff16036143b0576040517f08c379a00000000000000000000000000000000000000000000000000000000081526004016143a790616f39565b60405180910390fd5b6143b981613e9f565b156143f9576040517f08c379a00000000000000000000000000000000000000000000000000000000081526004016143f090616fa5565b60405180910390fd5b614407600083836001613ee0565b61441081613e9f565b15614450576040517f08c379a000000000000000000000000000000000000000000000000000000000815260040161444790616fa5565b60405180910390fd5b6001600460008473ffffffffffffffffffffffffffffffffffffffff1673ffffffffffffffffffffffffffffffffffffffff16815260200190815260200160002060008282540192505081905550816003600083815260200190815260200160002060006101000a81548173ffffffffffffffffffffffffffffffffffffffff021916908373ffffffffffffffffffffffffffffffffffffffff160217905550808273ffffffffffffffffffffffffffffffffffffffff16600073ffffffffffffffffffffffffffffffffffffffff167fddf252ad1be2c89b69c2b068fc378daa952ba7f163c4a11628f55a4df523b3ef60405160405180910390a461455a600083836001614006565b5050565b6000808273ffffffffffffffffffffffffffffffffffffffff163b119050919050565b8280548282559060005260206000209081019282156145c9579160200282015b828111156145c85782518290816145b891906157bd565b50916020019190600101906145a1565b5b5090506145d69190614627565b5090565b828054828255906000526020600020908101928215614616579160200282015b828111156146155782518255916020019190600101906145fa565b5b509050614623919061464b565b5090565b5b80821115614647576000818161463e9190614668565b50600101614628565b5090565b5b8082111561466457600081600090555060010161464c565b5090565b5080546146749061538f565b6000825580601f1061468657506146a5565b601f0160209004906000526020600020908101906146a4919061464b565b5b50565b6000604051905090565b600080fd5b600080fd5b60007fffffffff0000000000000000000000000000000000000000000000000000000082169050919050565b6146f1816146bc565b81146146fc57600080fd5b50565b60008135905061470e816146e8565b92915050565b60006020828403121561472a576147296146b2565b5b6000614738848285016146ff565b91505092915050565b60008115159050919050565b61475681614741565b82525050565b6000602082019050614771600083018461474d565b92915050565b600081519050919050565b600082825260208201905092915050565b60005b838110156147b1578082015181840152602081019050614796565b60008484015250505050565b6000601f19601f8301169050919050565b60006147d982614777565b6147e38185614782565b93506147f3818560208601614793565b6147fc816147bd565b840191505092915050565b6000602082019050818103600083015261482181846147ce565b905092915050565b6000819050919050565b61483c81614829565b811461484757600080fd5b50565b60008135905061485981614833565b92915050565b600060208284031215614875576148746146b2565b5b60006148838482850161484a565b91505092915050565b600073ffffffffffffffffffffffffffffffffffffffff82169050919050565b60006148b78261488c565b9050919050565b6148c7816148ac565b82525050565b60006020820190506148e260008301846148be565b92915050565b6148f1816148ac565b81146148fc57600080fd5b50565b60008135905061490e816148e8565b92915050565b6000806040838503121561492b5761492a6146b2565b5b6000614939858286016148ff565b925050602061494a8582860161484a565b9150509250929050565b60008060006060848603121561496d5761496c6146b2565b5b600061497b868287016148ff565b935050602061498c868287016148ff565b925050604061499d8682870161484a565b9150509250925092565b600080600080608085870312156149c1576149c06146b2565b5b60006149cf8782880161484a565b94505060206149e08782880161484a565b93505060406149f18782880161484a565b9250506060614a028782880161484a565b91505092959194509250565b600080fd5b7f4e487b7100000000000000000000000000000000000000000000000000000000600052604160045260246000fd5b614a4b826147bd565b810181811067ffffffffffffffff82111715614a6a57614a69614a13565b5b80604052505050565b6000614a7d6146a8565b9050614a898282614a42565b919050565b600067ffffffffffffffff821115614aa957614aa8614a13565b5b602082029050602081019050919050565b600080fd5b6000614ad2614acd84614a8e565b614a73565b90508083825260208201905060208402830185811115614af557614af4614aba565b5b835b81811015614b1e5780614b0a888261484a565b845260208401935050602081019050614af7565b5050509392505050565b600082601f830112614b3d57614b3c614a0e565b5b8135614b4d848260208601614abf565b91505092915050565b600067ffffffffffffffff821115614b7157614b70614a13565b5b602082029050602081019050919050565b600080fd5b600067ffffffffffffffff821115614ba257614ba1614a13565b5b614bab826147bd565b9050602081019050919050565b82818337600083830152505050565b6000614bda614bd584614b87565b614a73565b905082815260208101848484011115614bf657614bf5614b82565b5b614c01848285614bb8565b509392505050565b600082601f830112614c1e57614c1d614a0e565b5b8135614c2e848260208601614bc7565b91505092915050565b6000614c4a614c4584614b56565b614a73565b90508083825260208201905060208402830185811115614c6d57614c6c614aba565b5b835b81811015614cb457803567ffffffffffffffff811115614c9257614c91614a0e565b5b808601614c9f8982614c09565b85526020850194505050602081019050614c6f565b5050509392505050565b600082601f830112614cd357614cd2614a0e565b5b8135614ce3848260208601614c37565b91505092915050565b60008060008060808587031215614d0657614d056146b2565b5b6000614d148782880161484a565b945050602085013567ffffffffffffffff811115614d3557614d346146b7565b5b614d4187828801614b28565b935050604085013567ffffffffffffffff811115614d6257614d616146b7565b5b614d6e87828801614cbe565b9250506060614d7f878288016148ff565b91505092959194509250565b614d9481614829565b82525050565b600060a082019050614daf6000830188614d8b565b614dbc6020830187614d8b565b614dc96040830186614d8b565b614dd66060830185614d8b565b614de36080830184614d8b565b9695505050505050565b600060208284031215614e0357614e026146b2565b5b6000614e11848285016148ff565b91505092915050565b6000602082019050614e2f6000830184614d8b565b92915050565b60038110614e4257600080fd5b50565b600081359050614e5481614e35565b92915050565b60008060008060008060008060008060006101608c8e031215614e8057614e7f6146b2565b5b60008c013567ffffffffffffffff811115614e9e57614e9d6146b7565b5b614eaa8e828f01614c09565b9b505060208c013567ffffffffffffffff811115614ecb57614eca6146b7565b5b614ed78e828f01614c09565b9a505060408c013567ffffffffffffffff811115614ef857614ef76146b7565b5b614f048e828f01614c09565b99505060608c013567ffffffffffffffff811115614f2557614f246146b7565b5b614f318e828f01614cbe565b9850506080614f428e828f0161484a565b97505060a0614f538e828f0161484a565b96505060c08c013567ffffffffffffffff811115614f7457614f736146b7565b5b614f808e828f01614b28565b95505060e08c013567ffffffffffffffff811115614fa157614fa06146b7565b5b614fad8e828f01614b28565b945050610100614fbf8e828f0161484a565b935050610120614fd18e828f016148ff565b925050610140614fe38e828f01614e45565b9150509295989b509295989b9093969950565b6000806040838503121561500d5761500c6146b2565b5b600061501b8582860161484a565b925050602061502c858286016148ff565b9150509250929050565b600080600080600060a08688031215615052576150516146b2565b5b6000615060888289016148ff565b955050602086013567ffffffffffffffff811115615081576150806146b7565b5b61508d88828901614c09565b945050604086013567ffffffffffffffff8111156150ae576150ad6146b7565b5b6150ba88828901614c09565b935050606086013567ffffffffffffffff8111156150db576150da6146b7565b5b6150e788828901614c09565b925050608086013567ffffffffffffffff811115615108576151076146b7565b5b61511488828901614c09565b9150509295509295909350565b61512a81614741565b811461513557600080fd5b50565b60008135905061514781615121565b92915050565b60008060408385031215615164576151636146b2565b5b6000615172858286016148ff565b925050602061518385828601615138565b9150509250929050565b600060a08201905081810360008301526151a781886147ce565b905081810360208301526151bb81876147ce565b905081810360408301526151cf81866147ce565b905081810360608301526151e381856147ce565b90506151f2608083018461474d565b9695505050505050565b600067ffffffffffffffff82111561521757615216614a13565b5b615220826147bd565b9050602081019050919050565b600061524061523b846151fc565b614a73565b90508281526020810184848401111561525c5761525b614b82565b5b615267848285614bb8565b509392505050565b600082601f83011261528457615283614a0e565b5b813561529484826020860161522d565b91505092915050565b600080600080608085870312156152b7576152b66146b2565b5b60006152c5878288016148ff565b94505060206152d6878288016148ff565b93505060406152e78782880161484a565b925050606085013567ffffffffffffffff811115615308576153076146b7565b5b6153148782880161526f565b91505092959194509250565b60008060408385031215615337576153366146b2565b5b6000615345858286016148ff565b9250506020615356858286016148ff565b9150509250929050565b7f4e487b7100000000000000000000000000000000000000000000000000000000600052602260045260246000fd5b600060028204905060018216806153a757607f821691505b6020821081036153ba576153b9615360565b5b50919050565b7f4552433732313a20617070726f76616c20746f2063757272656e74206f776e6560008201527f7200000000000000000000000000000000000000000000000000000000000000602082015250565b600061541c602183614782565b9150615427826153c0565b604082019050919050565b6000602082019050818103600083015261544b8161540f565b9050919050565b7f4552433732313a20617070726f76652063616c6c6572206973206e6f7420746f60008201527f6b656e206f776e6572206f7220617070726f76656420666f7220616c6c000000602082015250565b60006154ae603d83614782565b91506154b982615452565b604082019050919050565b600060208201905081810360008301526154dd816154a1565b9050919050565b7f4552433732313a2063616c6c6572206973206e6f7420746f6b656e206f776e6560008201527f72206f7220617070726f76656400000000000000000000000000000000000000602082015250565b6000615540602d83614782565b915061554b826154e4565b604082019050919050565b6000602082019050818103600083015261556f81615533565b9050919050565b7f4e487b7100000000000000000000000000000000000000000000000000000000600052602160045260246000fd5b7f43616e27742073656c6c207469636b6574730000000000000000000000000000600082015250565b60006155db601283614782565b91506155e6826155a5565b602082019050919050565b6000602082019050818103600083015261560a816155ce565b9050919050565b60008190508160005260206000209050919050565b60006020601f8301049050919050565b600082821b905092915050565b6000600883026156737fffffffffffffffffffffffffffffffffffffffffffffffffffffffffffffffff82615636565b61567d8683615636565b95508019841693508086168417925050509392505050565b6000819050919050565b60006156ba6156b56156b084614829565b615695565b614829565b9050919050565b6000819050919050565b6156d48361569f565b6156e86156e0826156c1565b848454615643565b825550505050565b600090565b6156fd6156f0565b6157088184846156cb565b505050565b5b8181101561572c576157216000826156f5565b60018101905061570e565b5050565b601f8211156157715761574281615611565b61574b84615626565b8101602085101561575a578190505b61576e61576685615626565b83018261570d565b50505b505050565b600082821c905092915050565b600061579460001984600802615776565b1980831691505092915050565b60006157ad8383615783565b9150826002028217905092915050565b6157c682614777565b67ffffffffffffffff8111156157df576157de614a13565b5b6157e9825461538f565b6157f4828285615730565b600060209050601f8311600181146158275760008415615815578287015190505b61581f85826157a1565b865550615887565b601f19841661583586615611565b60005b8281101561585d57848901518255600182019150602085019450602081019050615838565b8683101561587a5784890151615876601f891682615783565b8355505b6001600288020188555050505b505050505050565b600082825260208201905092915050565b60006158ab82614777565b6158b5818561588f565b93506158c5818560208601614793565b6158ce816147bd565b840191505092915050565b600081519050919050565b600082825260208201905092915050565b6000819050602082019050919050565b600061591183836158a0565b905092915050565b6000602082019050919050565b6000615931826158d9565b61593b81856158e4565b93508360208202850161594d856158f5565b8060005b85811015615989578484038952815161596a8582615905565b945061597583615919565b925060208a01995050600181019050615951565b50829750879550505050505092915050565b600081519050919050565b600082825260208201905092915050565b6000819050602082019050919050565b6159d081614829565b82525050565b60006159e283836159c7565b60208301905092915050565b6000602082019050919050565b6000615a068261599b565b615a1081856159a6565b9350615a1b836159b7565b8060005b83811015615a4c578151615a3388826159d6565b9750615a3e836159ee565b925050600181019050615a1f565b5085935050505092915050565b60038110615a6a57615a69615576565b5b50565b6000819050615a7b82615a59565b919050565b6000615a8b82615a6d565b9050919050565b615a9b81615a80565b82525050565b600060c0830160008301518482036000860152615abe82826158a0565b91505060208301518482036020860152615ad882826158a0565b91505060408301518482036040860152615af282826158a0565b91505060608301518482036060860152615b0c8282615926565b91505060808301518482036080860152615b2682826159fb565b91505060a0830151615b3b60a0860182615a92565b508091505092915050565b6000606082019050615b5b6000830186614d8b565b615b686020830185614d8b565b8181036040830152615b7a8184615aa1565b9050949350505050565b7f4e487b7100000000000000000000000000000000000000000000000000000000600052601160045260246000fd5b6000615bbe82614829565b9150615bc983614829565b9250828203905081811115615be157615be0615b84565b5b92915050565b7f4552524f52380000000000000000000000000000000000000000000000000000600082015250565b6000615c1d600683614782565b9150615c2882615be7565b602082019050919050565b60006020820190508181036000830152615c4c81615c10565b9050919050565b7f6572726f72727200000000000000000000000000000000000000000000000000600082015250565b6000615c89600783614782565b9150615c9482615c53565b602082019050919050565b60006020820190508181036000830152615cb881615c7c565b9050919050565b7f6572726f72313400000000000000000000000000000000000000000000000000600082015250565b6000615cf5600783614782565b9150615d0082615cbf565b602082019050919050565b60006020820190508181036000830152615d2481615ce8565b9050919050565b7f4552524f52390000000000000000000000000000000000000000000000000000600082015250565b6000615d61600683614782565b9150615d6c82615d2b565b602082019050919050565b60006020820190508181036000830152615d9081615d54565b9050919050565b7f4552524f52313000000000000000000000000000000000000000000000000000600082015250565b6000615dcd600783614782565b9150615dd882615d97565b602082019050919050565b60006020820190508181036000830152615dfc81615dc0565b9050919050565b7f4552524f52313100000000000000000000000000000000000000000000000000600082015250565b6000615e39600783614782565b9150615e4482615e03565b602082019050919050565b60006020820190508181036000830152615e6881615e2c565b9050919050565b7f4552524f52313200000000000000000000000000000000000000000000000000600082015250565b6000615ea5600783614782565b9150615eb082615e6f565b602082019050919050565b60006020820190508181036000830152615ed481615e98565b9050919050565b7f4552524f52313300000000000000000000000000000000000000000000000000600082015250565b6000615f11600783614782565b9150615f1c82615edb565b602082019050919050565b60006020820190508181036000830152615f4081615f04565b9050919050565b7f4e487b7100000000000000000000000000000000000000000000000000000000600052603260045260246000fd5b600081905092915050565b6000615f8c82614777565b615f968185615f76565b9350615fa6818560208601614793565b80840191505092915050565b6000615fbe8284615f81565b915081905092915050565b6000615fd482614829565b9150615fdf83614829565b9250828201905080821115615ff757615ff6615b84565b5b92915050565b600061600882614829565b91507fffffffffffffffffffffffffffffffffffffffffffffffffffffffffffffffff820361603a57616039615b84565b5b600182019050919050565b7f696e76616c69642076616c756500000000000000000000000000000000000000600082015250565b600061607b600d83614782565b915061608682616045565b602082019050919050565b600060208201905081810360008301526160aa8161606e565b9050919050565b60006160bc82614829565b91506160c783614829565b92508282026160d581614829565b915082820484148315176160ec576160eb615b84565b5b5092915050565b7f4e487b7100000000000000000000000000000000000000000000000000000000600052601260045260246000fd5b600061612d82614829565b915061613883614829565b925082616148576161476160f3565b5b828204905092915050565b600081905092915050565b50565b600061616e600083616153565b91506161798261615e565b600082019050919050565b600061618f82616161565b9150819050919050565b7f5472616e73666572206661696c65643a20676173206572726f72000000000000600082015250565b60006161cf601a83614782565b91506161da82616199565b602082019050919050565b600060208201905081810360008301526161fe816161c2565b9050919050565b600061621082614829565b91506000820361622357616222615b84565b5b600182039050919050565b60006080820190506162436000830187614d8b565b818103602083015261625581866147ce565b9050818103604083015261626981856147ce565b9050818103606083015261627d81846147ce565b905095945050505050565b600060408201905061629d60008301856148be565b6162aa6020830184614d8b565b9392505050565b7f4552433732313a20696e76616c696420746f6b656e2049440000000000000000600082015250565b60006162e7601883614782565b91506162f2826162b1565b602082019050919050565b60006020820190508181036000830152616316816162da565b9050919050565b7f4552433732313a2061646472657373207a65726f206973206e6f74206120766160008201527f6c6964206f776e65720000000000000000000000000000000000000000000000602082015250565b6000616379602983614782565b91506163848261631d565b604082019050919050565b600060208201905081810360008301526163a88161636c565b9050919050565b7f4552524f52320000000000000000000000000000000000000000000000000000600082015250565b60006163e5600683614782565b91506163f0826163af565b602082019050919050565b60006020820190508181036000830152616414816163d8565b9050919050565b7f4552524f52330000000000000000000000000000000000000000000000000000600082015250565b6000616451600683614782565b915061645c8261641b565b602082019050919050565b6000602082019050818103600083015261648081616444565b9050919050565b7f4552524f52340000000000000000000000000000000000000000000000000000600082015250565b60006164bd600683614782565b91506164c882616487565b602082019050919050565b600060208201905081810360008301526164ec816164b0565b9050919050565b7f4552524f52350000000000000000000000000000000000000000000000000000600082015250565b6000616529600683614782565b9150616534826164f3565b602082019050919050565b600060208201905081810360008301526165588161651c565b9050919050565b7f4552524f52360000000000000000000000000000000000000000000000000000600082015250565b6000616595600683614782565b91506165a08261655f565b602082019050919050565b600060208201905081810360008301526165c481616588565b9050919050565b7f4552524f52370000000000000000000000000000000000000000000000000000600082015250565b6000616601600683614782565b915061660c826165cb565b602082019050919050565b60006020820190508181036000830152616630816165f4565b9050919050565b61664081615a80565b82525050565b600060e08201905061665b600083018a614d8b565b818103602083015261666d81896147ce565b905061667c6040830188614d8b565b6166896060830187614d8b565b6166966080830186614d8b565b6166a360a0830185614d8b565b6166b060c0830184616637565b98975050505050505050565b600082825260208201905092915050565b60006166d8826158d9565b6166e281856166bc565b9350836020820285016166f4856158f5565b8060005b8581101561673057848403895281516167118582615905565b945061671c83615919565b925060208a019950506001810190506166f8565b50829750879550505050505092915050565b600082825260208201905092915050565b600061675e8261599b565b6167688185616742565b9350616773836159b7565b8060005b838110156167a457815161678b88826159d6565b9750616796836159ee565b925050600181019050616777565b5085935050505092915050565b600060c0820190506167c66000830189614d8b565b81810360208301526167d881886147ce565b905081810360408301526167ec81876147ce565b9050818103606083015261680081866166cd565b905081810360808301526168148185616753565b905061682360a0830184616637565b979650505050505050565b7f53616c6520686173206e6f742073746172746564000000000000000000000000600082015250565b6000616864601483614782565b915061686f8261682e565b602082019050919050565b6000602082019050818103600083015261689381616857565b9050919050565b7f53616c652068617320656e646564000000000000000000000000000000000000600082015250565b60006168d0600e83614782565b91506168db8261689a565b602082019050919050565b600060208201905081810360008301526168ff816168c3565b9050919050565b600060608201905061691b60008301866148be565b61692860208301856148be565b6169356040830184614d8b565b949350505050565b60008151905061694c81615121565b92915050565b600060208284031215616968576169676146b2565b5b60006169768482850161693d565b91505092915050565b600060a08201905061699460008301886148be565b81810360208301526169a681876147ce565b905081810360408301526169ba81866147ce565b905081810360608301526169ce81856147ce565b905081810360808301526169e281846147ce565b90509695505050505050565b7f63616e2774206275726e207469636b6574730000000000000000000000000000600082015250565b6000616a24601283614782565b9150616a2f826169ee565b602082019050919050565b60006020820190508181036000830152616a5381616a17565b9050919050565b6000616a668285615f81565b9150616a728284615f81565b91508190509392505050565b7f4f776e61626c653a206e6577206f776e657220697320746865207a65726f206160008201527f6464726573730000000000000000000000000000000000000000000000000000602082015250565b6000616ada602683614782565b9150616ae582616a7e565b604082019050919050565b60006020820190508181036000830152616b0981616acd565b9050919050565b7f4552433732313a207472616e736665722066726f6d20696e636f72726563742060008201527f6f776e6572000000000000000000000000000000000000000000000000000000602082015250565b6000616b6c602583614782565b9150616b7782616b10565b604082019050919050565b60006020820190508181036000830152616b9b81616b5f565b9050919050565b7f4552433732313a207472616e7366657220746f20746865207a65726f2061646460008201527f7265737300000000000000000000000000000000000000000000000000000000602082015250565b6000616bfe602483614782565b9150616c0982616ba2565b604082019050919050565b60006020820190508181036000830152616c2d81616bf1565b9050919050565b7f6572726f72000000000000000000000000000000000000000000000000000000600082015250565b6000616c6a600583614782565b9150616c7582616c34565b602082019050919050565b60006020820190508181036000830152616c9981616c5d565b9050919050565b7f4f776e61626c653a2063616c6c6572206973206e6f7420746865206f776e6572600082015250565b6000616cd6602083614782565b9150616ce182616ca0565b602082019050919050565b60006020820190508181036000830152616d0581616cc9565b9050919050565b7f4552433732313a20617070726f766520746f2063616c6c657200000000000000600082015250565b6000616d42601983614782565b9150616d4d82616d0c565b602082019050919050565b60006020820190508181036000830152616d7181616d35565b9050919050565b7f4552433732313a207472616e7366657220746f206e6f6e20455243373231526560008201527f63656976657220696d706c656d656e7465720000000000000000000000000000602082015250565b6000616dd4603283614782565b9150616ddf82616d78565b604082019050919050565b60006020820190508181036000830152616e0381616dc7565b9050919050565b600081519050919050565b600082825260208201905092915050565b6000616e3182616e0a565b616e3b8185616e15565b9350616e4b818560208601614793565b616e54816147bd565b840191505092915050565b6000608082019050616e7460008301876148be565b616e8160208301866148be565b616e8e6040830185614d8b565b8181036060830152616ea08184616e26565b905095945050505050565b600081519050616eba816146e8565b92915050565b600060208284031215616ed657616ed56146b2565b5b6000616ee484828501616eab565b91505092915050565b7f4552433732313a206d696e7420746f20746865207a65726f2061646472657373600082015250565b6000616f23602083614782565b9150616f2e82616eed565b602082019050919050565b60006020820190508181036000830152616f5281616f16565b9050919050565b7f4552433732313a20746f6b656e20616c7265616479206d696e74656400000000600082015250565b6000616f8f601c83614782565b9150616f9a82616f59565b602082019050919050565b60006020820190508181036000830152616fbe81616f82565b905091905056fea2646970667358221220f2a91bd97dc126466ee34512fce92377233f0e2e6cb411bf503f84e634eb43b764736f6c63430008110033",
    "linkReferences": {},
    "deployedLinkReferences": {}
}